:020000040000FA
:100000000C9494050C94BC050C94BC050C9491269E
:100010000C9491260C9491260C94BC050C94BC0570
:100020000C94BC050C94BC050C94BC050C94D52513
:100030000C94BC050C94BC050C94BC050C94BC053C
:100040000C9414240C94BC050C9484240C945E240D
:100050000C94BC050C94BC050C94BC050C94BC051C
:100060000C94B6240C94BC054E6572766F757300C3
:10007000446561640057696E6B00436F6F6C005399
:100080006879004576696C00426F72656400446966
:100090007A7A79004578636974656400436F6E66A7
:1000A0007573656400536C65657079004C6F766597
:1000B0000043727900537572707269736564004110
:1000C0006E67727900536164004861707079004E08
:1000D0006F726D616C0000000000003E5B4F5B3E84
:1000E0003E6B4F6B3E1C3E7C3E1C183C7E3C181CFD
:1000F000577D571C1C5E7F5E1C00183C1800FFE7F4
:10010000C3E7FF0018241800FFE7DBE7FF30483A99
:10011000060E2629792926407F050507407F0525FB
:100120003F5A3CE73C5A7F3E1C1C08081C1C3E7F83
:1001300014227F22145F5F005F5F06097F017F004A
:100140006689956A606060606094A2FFA29408046A
:100150007E040810207E201008082A1C08081C2A8B
:1001600008081E101010100C1E0C1E0C30383E38E3
:1001700030060E3E0E06000000000000005F00008A
:100180000007000700147F147F14242A7F2A1223FB
:100190001308646236495620500008070300001C0B
:1001A0002241000041221C002A1C7F1C2A08083E14
:1001B0000808008070300008080808080000606027
:1001C0000020100804023E5149453E00427F400095
:1001D00072494949462141494D331814127F10276D
:1001E000454545393C4A49493141211109073649BC
:1001F000494936464949291E000014000000403490
:100200000000000814224114141414140041221494
:100210000802015909063E415D594E7C1211127CBB
:100220007F494949363E414141227F4141413E7F1C
:10023000494949417F090909013E414151737F08FC
:1002400008087F00417F41002040413F017F0814A2
:1002500022417F404040407F021C027F7F04081003
:100260007F3E4141413E7F090909063E4151215EE1
:100270007F09192946264949493203017F01033F75
:100280004040403F1F2040201F3F4038403F631404
:1002900008146303047804036159494D43007F4106
:1002A00041410204081020004141417F0402010243
:1002B0000440404040400003070800205454784068
:1002C0007F284444383844444428384444287F38FC
:1002D0005454541800087E090218A4A49C787F087E
:1002E00004047800447D40002040403D007F1028F9
:1002F000440000417F40007C047804787C080404BA
:10030000783844444438FC1824241818242418FC51
:100310007C08040408485454542404043F44243CF6
:100320004040207C1C2040201C3C4030403C442865
:100330001028444C9090907C4464544C44000836FF
:10034000410000007700000041360800020102046D
:10035000023C2623263C1EA1A161123A4040207A8D
:1003600038545455592155557941225454784221D5
:100370005554784020545579400C1E52721239550C
:100380005555593954545459395554545800004509
:100390007C410002457D420001457C407D121112E6
:1003A0007DF0282528F07C545545002054547C5479
:1003B0007C0A097F4932494949323A4444443A3235
:1003C0004A4848303A4141217A3A42402078009DDB
:1003D000A0A07D3D4242423D3D4040403D3C24FF87
:1003E0002424487E4943662B2FFC2F2BFF0929F636
:1003F00020C0887E090320545479410000447D4187
:100400003048484A32384040227A007A0A0A727DDF
:100410000D19317D2629292F2826292929263048FA
:100420004D4020380808080808080808382F10C868
:10043000ACBA2F102834FA00007B000008142A14EC
:100440002222142A14085500550055AA55AA55AA67
:10045000FF55FF55FF000000FF00101010FF0014B3
:100460001414FF001010FF00FF1010F010F014140F
:1004700014FC001414F700FF0000FF00FF1414F434
:1004800004FC141417101F10101F101F1414141F35
:1004900000101010F0000000001F101010101F10AE
:1004A000101010F010000000FF10101010101010AD
:1004B0001010FF10000000FF140000FF00FF0000FC
:1004C0001F10170000FC04F414141710171414F470
:1004D00004F40000FF00F714141414141414F700AB
:1004E000F7141414171410101F101F141414F414FC
:1004F0001010F010F000001F101F0000001F14006B
:100500000000FC140000F010F01010FF10FF141495
:1005100014FF141010101F00000000F010FFFFFF68
:10052000FFFFF0F0F0F0F0FFFFFF0000000000FF21
:10053000FF0F0F0F0F0F3844443844FC4A4A4A3427
:100540007E02020606027E027E026355494163383E
:1005500044443C04407E201E2006027E020299A5EF
:10056000E7A5991C2A492A1C4C7201724C304A4D4D
:100570004D303048784830BC625A463D3E49494982
:10058000007E0101017E2A2A2A2A2A44445F44442B
:1005900040514A444040444A51400000FF0103E0BA
:1005A00080FF000008086B6B083612362436060FF1
:1005B000090F06000018180000001010003040FF5E
:1005C0000101001F01011E00191D1712003C3C3CD7
:1005D0003C0000000000000103070F1F3F7F008068
:1005E000C0E0F0F8FCFEDB40A4A62EAF2000A1C8BE
:1005F000D300408DAED580A8000060000000000050
:10060000000000000000000000E00000000000000A
:100610000000000000000001E000000000000000F9
:1006200000000000000001F00000000000000000D9
:10063000000000000003F0000000000000000000C7
:100640000000000007F000000000000000000000B3
:1006500000000007F800000000000000000000009B
:1006600000000FF800000003C0007E000001E00061
:100670007F0FF800000003C000FE000001E000FF53
:10068000EFF800000003C000FE000001E000FFFFE3
:10069000F800000003C000F00000000F007FFE7FA4
:1006A000C0000003C000F00000000F003FFE7FF814
:1006B0003FF1FBCFFCFEF3BC3DEFE01FFE7FFF7F71
:1006C000FBFFDFFEFEFFBC3DEFE01FC6FFFF7FFB31
:1006D000FFDFFEFEFFBC3DEFE00FE3C7FE787BC30C
:1006E000DE1EF0FFBC3DEF0007FF87FC787BC3DE1A
:1006F0001EF0F83C3DEF0001FFFFF0007BC3C01E81
:10070000F0F03C3DEF0001F37FE03FFBC3CFFEF094
:10071000F03C3DEF0003E33F807FFBC3DFFEF0F0E2
:100720003C3DEF0007E73C00787BC3DE1EF0F03C69
:100730003DEF0007FFBE00787BC3DE1EF0F03C3DBE
:10074000EF0007FFFE00787BC3DE1EF0F03C3DEFBC
:10075000000FFFFE007FFBFFDFFEF0F03FFDEFE04C
:100760000FFFFF007FFBFFDFFEF0F03FFDEFE00F2C
:10077000F9FF003E79F9CF9EF0F01F3DE7E01FF151
:10078000FF0000000000000000000000001F80FFCC
:10079000007FFFFFFFFFFFFFFFFFFFE01C007F0068
:1007A0007FFFFFFFFEB46D888D18E000001F007F03
:1007B000FFFFFFFE95AD7DB577E000000F007FFFE6
:1007C000FFFFFEA5AD9D8D19E0000006007FFFFF35
:1007D000FFFEB5ADEDB57EE0000000000001800039
:1007E0000000000000000000038000000000000086
:1007F00000000007C000000000000000000007C06B
:100800000000000000000000000FC0000000000019
:10081000000000001FE00000000000000000001FBA
:10082000E00000000000000000003FE000000000C9
:1008300000000000003FF000000000000000000089
:100840007FF0000000000000001FF87FF0000000B3
:10085000000000003FFE7FF0000000000000003FAD
:10086000FF7FF0000000000000001FFFFBE0000021
:1008700000000000000FFFF9FFC0000000000000B2
:100880000FFFF9FFF800000000000007FFF1FFFF75
:1008900000000000000003FC73FFFF800000000068
:1008A0000001FE3FFFFF80000000000000FF1E0F60
:1008B000FF000000000000007FFE1FFC00000000A1
:1008C0000000003FFFFFF8000000000000000FDF05
:1008D000FFE0000000000000001F19FFC000000042
:1008E000000000003F3CFF00000000000000007E10
:1008F0007CF800000000000000007FFE7C0000008B
:100900000000000000FFFFFC0000000000000000ED
:10091000FFFFFE0000000000000000FFFFFE0000DF
:10092000000000000001FFEFFE00000000000000DA
:1009300001FFCFFE0000000000000003FF07FE00E3
:1009400000000000000003FC07FE000000000000A3
:100950000003F003FE00000000000000018000FE24
:10096000000000000000000000007E000000000009
:1009700000000000003E0000000000000000000039
:100980000C000000000000078000FC000003C00015
:100990000000078001FC000003C000000007800188
:1009A000FC000003C0000000078001E00000001E02
:1009B000000000078001E00000001E007FE3F79FB9
:1009C000F9FDE7787BDFC0FFF7FFBFFDFDFF787B18
:1009D000DFC0FFF7FFBFFDFDFF787BDFC0F0F787CB
:1009E000BC3DE1FF787BDE00F0F787BC3DE1F078AD
:1009F0007BDE0000F787803DE1E0787BDE007FF75B
:100A0000879FFDE1E0787BDE00FFF787BFFDE1E037
:100A1000787BDE00F0F787BC3DE1E0787BDE00F01C
:100A2000F787BC3DE1E0787BDE00F0F787BC3DE175
:100A3000E0787BDE00FFF7FFBFFDE1E07FFBDFC07A
:100A4000FFF7FFBFFDE1E07FFBDFC07CF3F39F3DDD
:100A5000E1E03E7BCFC0000000000000000000008D
:100A600000FFFFFFFFFFFFFFFFFFFFC0FFFFFFFFD4
:100A7000FD68DB111A31C0FFFFFFFFFD2B5AFB6A37
:100A8000EFC0FFFFFFFFFD4B5B3B1A33C0FFFFFFD3
:100A9000FFFD6B5BDB6AFDC05353443133303620BE
:100AA0006E6F7420666F756E6420E2809420636FB1
:100AB0006E74696E75696E6720776974686F757496
:100AC000204F4C45440000000000240027002A006D
:100AD00000000008000201000003040700000000FD
:100AE000000000002200FF2100000000230026007B
:100AF000290000000000250028002B000404040445
:100B000004040404020202020202030303030303B7
:100B10000102040810204080010204081020010294
:100B2000040810204E27CE3111241FBECFEFD8E08D
:100B3000DEBFCDBF12E0A0E0B1E0E0E5FEE602C01E
:100B400005900D92AA34B107D9F724E0AAE4B2E0E7
:100B500001C01D92A339B207E1F715E0C3E9D5E062
:100B600004C02197FE010E94DE34C239D107C9F7C3
:100B70000E94A8280C941B370C9400000895CF9273
:100B8000DF92EF92FF92DC01A03282E0B807D4F549
:100B9000A53BB10514F0A4EBB0E04091220428E895
:100BA00030E0241B310947FD3395220F331F220FFC
:100BB000331F6901330FEE08FF084091230428E535
:100BC00032E0241B310947FD3395220F331F220FDA
:100BD000331F032E000C440B550B2C193D094E09F5
:100BE0005F09B7FF02C0B0E0A0E00E94A63324EB8B
:100BF00030E040E050E00E947C33C20ED31EE41E81
:100C0000F51ED601E0912104EC3080F520912204FC
:100C100088E890E0821B910927FD9395880F991F22
:100C2000880F991FA817B90784F02091230488E53D
:100C300092E0821B910927FD9395880F991F880FD9
:100C4000991FA817B9070CF4CD010297880F991FB7
:100C50004FB7F8942E2F30E0F901EE0FFF1FE20F8F
:100C6000F31FE051FC4F928381834FBFFF90EF90C1
:100C7000DF90CF90089590E0FC01E053F54F249170
:100C8000FC01E05FF44F3491FC01E450F54FE49136
:100C9000EE23C9F0222339F0233001F1A8F42130EA
:100CA00019F1223029F1F0E0EE0FFF1FEE50F54F61
:100CB000A591B4918FB7F894EC91611126C030954D
:100CC0003E233C938FBF08952730A9F02830C9F008
:100CD000243049F7809180008F7D03C0809180008F
:100CE0008F7780938000DFCF84B58F7784BDDBCF93
:100CF00084B58F7DFBCF8091B0008F778093B0005B
:100D0000D2CF8091B0008F7DF9CF3E2BDACFCF9339
:100D1000DF9390E0FC01E05FF44F24918450954F05
:100D2000FC0184918823D1F090E0880F991FFC0189
:100D3000EA53F54FA591B491FC01EE50F54FC591E2
:100D4000D49161110EC09FB7F8948C91E22FE09579
:100D50008E238C932881E223E8839FBFDF91CF917C
:100D600008958FB7F894EC91E22BEC938FBFF6CFF8
:100D70001F93CF93DF93182FEB0161E00E9487064A
:100D8000209739F460E0812FDF91CF911F910C946F
:100D90003B06CF3FD10511F461E0F5CFE12FF0E044
:100DA000E053F54FE491E33031F140F4E130B1F03C
:100DB000E230E1F0C038D1057CF7E4CFE73029F12B
:100DC000E83059F1E430B1F780918000806280937F
:100DD0008000D0938B00C0938A0004C084B58068E3
:100DE00084BDC7BDDF91CF911F91089584B5806206
:100DF00084BDC8BDF7CF809180008068809380005B
:100E0000D0938900C0938800EDCF8091B0008068B6
:100E10008093B000C093B300E5CF8091B0008062B2
:100E20008093B000C093B400DDCF3FB7F8948091B9
:100E3000470390914803A0914903B0914A0326B516
:100E4000A89B05C02F3F19F00196A11DB11D3FBF02
:100E5000BA2FA92F982F8827BC01CD01620F711DD1
:100E6000811D911D42E0660F771F881F991F4A95CB
:100E7000D1F708958F929F92AF92BF92CF92DF9257
:100E8000EF92FF926B017C010E9415074B015C0100
:100E9000C114D104E104F104B9F00E9415076819E6
:100EA00079098A099B09683E73408105910580F3A1
:100EB00021E0C21AD108E108F10888EE880E83E02B
:100EC000981EA11CB11CE4CFFF90EF90DF90CF9053
:100ED000BF90AF909F908F90089508950895AF921E
:100EE000BF92CF92DF92EF92FF920F931F93CF9317
:100EF000DF936C017B018B01040F151FEB015E0179
:100F0000AE18BF08C017D10759F06991D601ED910D
:100F1000FC910190F081E02DC6010995892B79F7AC
:100F2000C501DF91CF911F910F91FF90EF90DF905E
:100F3000CF90BF90AF900895FC01538D448D252F25
:100F400030E0842F90E0821B930B541710F0CF9663
:100F5000089501970895FC01918D828D981761F095
:100F6000A28DAE0FBF2FB11D5D968C91928D9F5FAC
:100F70009F73928F90E008958FEF9FEF0895FC018B
:100F8000918D828D981731F0828DE80FF11D858D3E
:100F900090E008958FEF9FEF0895FC01918D228DD1
:100FA000892F90E0805C9F4F821B91098F73992756
:100FB000089583E593E00E94CD0721E0892B09F491
:100FC00020E0822F089580E090E0892B29F00E9494
:100FD000D90781110C9400000895FC01A48DA80F7D
:100FE000B92FB11DA35ABF4F2C91848D90E001966B
:100FF0008F739927848FA689B7892C93A089B1898B
:101000008C91837080648C93938D848D981306C02B
:101010000288F389E02D80818F7D80830895EF928F
:10102000FF920F931F93CF93DF93EC0181E0888FA2
:101030009B8D8C8D98131AC0E889F989808185FF72
:1010400015C09FB7F894EE89FF896083E889F98914
:1010500080818370806480839FBF81E090E0DF9116
:10106000CF911F910F91FF90EF900895F62E0B8D69
:1010700010E00F5F1F4F0F731127E02E8C8D8E1124
:101080000CC00FB607FCFACFE889F989808185FF8B
:10109000F5CFCE010E94ED07F1CFEB8DEC0FFD2FC8
:1010A000F11DE35AFF4FF0829FB7F8940B8FEA8946
:1010B000FB8980818062CFCFCF93DF93EC01888D55
:1010C0008823B9F0AA89BB89E889F9898C9185FDC3
:1010D00003C0808186FD0DC00FB607FCF7CF8C9151
:1010E00085FFF2CF808185FFEDCFCE010E94ED0715
:1010F000E9CFDF91CF910895EF92FF920F931F9365
:10110000CF93DF93EC01EC80FD806E157F050CF032
:1011100070C057FF04C0240F351F50E040E08E819F
:101120009F81FA01E20FF31F8E179F071CF49C01A9
:10113000241B350B121613060CF05BC0922F842F64
:101140008695869586958E9DD0018F9DB00D112434
:101150006A0F7B1FAF8DB8A1A60FB71F477049F16B
:1011600088E0841B482F682F70E0FB01E252FA4FA1
:10117000E491281708F063C0621B71092FEF30E07B
:1011800002C0359527956A95E2F7E22301301105F3
:1011900039F0B0F10230110561F58C91E82702C0F9
:1011A0008C91E82BEC93941720F12C813D81A20FB8
:1011B000B31FE92FE41BE83078F00230110521F568
:1011C0008E2F9C9190959C932C813D81A20FB31FF3
:1011D00088508830B0F7E770EE2359F0F0E0EA521B
:1011E000FA4FE49101301105F9F010F102301105C8
:1011F00019F1DF91CF911F910F91FF90EF9008951A
:10120000E0958C91E823CECF81E00115110509F41A
:1012100080E081959E2F8C932C813D81A20FB31F7E
:1012200098509830C0F7D7CF8C91E82BEC93E1CF52
:10123000E0958C91E823FACF8C91E827F7CF013025
:10124000110509F4ADCFE0F20230110509F4A5CF84
:10125000AE0DBF1DAECF0F931F93CF93DF9377FFDC
:1012600004C0260F371F70E060E0DC011496CD91BA
:10127000DC91FB01E20FF31FCE17DF071CF49E0188
:10128000261B370B121613064CF5FA0157FD37963D
:10129000A3E0F595E795AA95E1F7EC9FD001ED9FC6
:1012A000B00DFC9FB00D11246A0F7B1FDC015F960F
:1012B000ED91FC91E60FF71F4770552781E090E014
:1012C00001C0880F4A95EAF7482F0130110559F0FF
:1012D000A8F02E0F3F1F02301105E1F0DF91CF91F2
:1012E0001F910F9108952E0F3F1FE217F307B1F3DF
:1012F0008191DF011197842B8C93F7CF80952E0F6E
:101300003F1FE217F30751F39191DF0111979823E3
:101310009C93F7CFE217F30709F38191DF0111974F
:1013200084278C93F7CF0F931F93FA01DC01569615
:101330004C9156974230E9F04330A1F1413061F5CC
:1013400014964D915C91DA01AE1BBF0BFD01E21BBF
:10135000F30B77FD0BC0DC0116964D915C91641781
:10136000750724F4AB01BF010E942B091F910F9157
:10137000089514964D915C91DA01A61BB70BBD013F
:1013800061507109DC0116964D915C91DA01AE1B3A
:10139000BF0BFD01E21BF30B77FDE8CFAF010E940D
:1013A0007C08E4CF16964D915C91DA01A61BB70B31
:1013B000BD0161507109CDCF0F931F93FA01DC017C
:1013C00056964C9156974230A9F0433091F14130F6
:1013D00019F514964D915C91DA01AE1BBF0BFD011E
:1013E0003197F7FD04C0AB01BF010E947C081F913B
:1013F0000F91089514964D915C91DA01A61BB70BDD
:10140000BD01DC0116964D915C91DA01AE1BBF0B5C
:10141000FD013197621B730BF7FDE9CFDC011696D6
:101420004D915C91E417F50714F7AF010E942B0969
:10143000DECF16964D915C91DA01A61BB70BBD016C
:10144000621B730BCECFFC0177FD64C08085918554
:10145000681779070CF05EC057FD5CC082859385E4
:10146000481759070CF056C086898230B1F0833096
:1014700029F1813041F484819581841B950BAB0166
:10148000BC01615071092130310509F108F443C0F4
:101490002230310509F463C0089584819581DC010F
:1014A000A61BB70BBD016150710986819781DC01D4
:1014B000A41BB50BAD0141505109E5CF8681978141
:1014C000861B970BBA01AC0141505109DCCFCA0110
:1014D00057FD0796A3E095958795AA95E1F7A48116
:1014E000B5818A9F90018B9F300D9A9F300D1124FA
:1014F000620F731F078CF0A1E02DE60FF71F4770F6
:10150000552721E030E001C0220F4A95EAF780819B
:10151000822B80830895CA0157FD079633E0959585
:1015200087953A95E1F7A481B5818A9F90018B9FB9
:10153000300D9A9F300D1124620F731F078CF0A19C
:10154000E02DE60FF71F4770552781E090E001C0BE
:10155000880F4A95EAF7809590818923DACFCA01EE
:1015600057FD079623E0959587952A95E1F7A48185
:10157000B5818A9F90018B9F300D9A9F300D112469
:10158000620F731F078CF0A1E02DE60FF71F477065
:10159000552721E030E001C0220F4A95EAF780810B
:1015A0008227B7CF08958EBD00000DB407FEFDCF92
:1015B0008EB508958CBD9DBD08950895FC0163709E
:1015C000668B8481958126813781613039F0633063
:1015D00029F0918780873387228708953187208774
:1015E0009387828708952F923F924F925F926F92D6
:1015F0007F928F929F92AF92BF92CF92DF92EF92A3
:10160000FF920F931F93CF93DF93CDB7DEB76A9707
:101610000FB6F894DEBF0FBECDBF9A8F898F7A8345
:1016200069834A01D22E18870F833701BC2CDC0155
:1016300059962D913C915A972115310509F015C104
:1016400018968D919C911997681779070CF0D7C15E
:101650001A968D919C91481759070CF0D0C14C2CCB
:10166000512CB6E0CB9E600D711D11247C876B87D9
:10167000161617060CF0C3C1EA2DF0E0FA87E987C9
:1016800093E0EE0FFF1F9A95E1F7F88BEF87CF01FC
:10169000840F951F181619060CF0B1C1A98DBA8DCB
:1016A00058968C91811104C0BFEABD1508F4D394FB
:1016B000A98DBA8DED91FC9111970284F385E02DEF
:1016C000CD010995B5E0DB9EC0011124E981FA81C5
:1016D000FC83EB83312C212C9C012A523F4F388F05
:1016E0002F8B4A2D50E05E8B4D8BEF89F88DE20DEC
:1016F000F31D44919E828D82D12CC12C69817A8107
:10170000620D731D7A8B698B842F90E09C8B8B8B81
:10171000E98DFA8DA081B18140FF82C0F1E0BF1256
:101720006FC0AF126DC01C96ED91FC912F81388572
:10173000A4014C0D5D1D69897A89898D9A8D099561
:10174000EB89FC89F595E7954E2F5FEFC51AD50A11
:101750006D817E818D899E89680F791F7E836D835F
:1017600098E0C916D10481F6AFEF2A1A3A0AEB8144
:10177000FC81E40DF51DFC83EB83F5E02F163104AD
:1017800009F0B3CF2F81388526153705B9F0A98D1B
:10179000BA8DED91FC91B1E0BB1257C0AB1255C0B0
:1017A00069817A816B5F7F4F0088F189E02D830129
:1017B00028E030E0A401898D9A8D0995A98DBA8D14
:1017C000ED91FC9111970688F789E02DCD016A967D
:1017D0000FB6F894DEBF0FBECDBFDF91CF911F9142
:1017E0000F91FF90EF90DF90CF90BF90AF909F90C0
:1017F0008F907F906F905F904F903F902F900994C3
:101800001E96ED91FC91EF80F88409851A8592016E
:101810004D815E816B817C81898D9A8D099590CFF8
:101820002F8138852615370509F48ACF31E0B312A8
:1018300007C0A31205C01C96ED91FC91930178CFCF
:101840001E96ED91FC917301E0CF6B857C85641948
:1018500075090684F785E02D73010F8518899201BB
:10186000A401898D9A8D0995A9CFF9013496949197
:10187000329745915491D91AB7E0DB9E400D511D26
:101880001124F901259134913C8B2B8BFA01259081
:101890003490FA013296749031963491398B3296A5
:1018A00064903196449041E04C1518F04A1508F0C8
:1018B0007FC0662D062C000C770B7C836B83842DF8
:1018C000042C000C990B9E838D83A98DBA8DED910C
:1018D000FC9111970284F385E02DCD010995512CDF
:1018E000D12CC12CEA2DF0E0FA87E9872B2D30E0CE
:1018F0003C872B87A401440D511D47FC5A95588FF6
:101900004F8B69817A81660D711D67FC7A957E87A0
:101910006D877989C71608F051CF2C2D30E04D81A5
:101920005E81420F531FA985BA854A9FC0014B9F14
:10193000900D5A9F900D1124FC01E80DF91DF88BB4
:10194000EF87852D612C4F89588D420F531F5E8B79
:101950004D8B671408F050C044244394480E8770A0
:1019600041F4C1010196EB89FC89E20DF31DD4908D
:101970001C01D7FE19C0A98DBA8DED91FC91662D81
:1019800070E0B1E0BB1219C0AB1217C02D853E85C7
:10199000620F731F0484F585E02D2F8138854D89F2
:1019A0005E89898D9A8D0995DD0C6394842DD1CF44
:1019B0001E821D821C821B8288CF4B815C81640F3A
:1019C000751FAB85BC856A9FC0016B9F900D7A9F88
:1019D000900D112469817A81680F791F0684F7853B
:1019E000E02DEF80F88409851A859D014F8558897F
:1019F000898D9A8D0995D8CF570CC3948ACF6A9652
:101A00000FB6F894DEBF0FBECDBFDF91CF911F910F
:101A10000F91FF90EF90DF90CF90BF90AF909F908D
:101A20008F907F906F905F904F903F902F90089590
:101A30008F929F92AF92CF92EF92FF920F931F934C
:101A4000CF93DF93EC01262F898D9A8D009709F0B3
:101A500051C06A30D1F41D861C868D8948E0849F70
:101A6000900111248E859F85820F931F9F878E87FB
:101A700081E090E0DF91CF911F910F91FF90EF9067
:101A8000CF90AF909F908F9008956D3089F3CC8860
:101A9000AD888F898823C1F08C859D8536E0C39EF3
:101AA000800D911D1124488559854817590764F404
:101AB0004E855F851D861C8638E0A39EC0011124DB
:101AC000840F951F9F878E87EA88FB88088919896C
:101AD0004E855F856C857D85CE010E94F30A2C8939
:101AE0008C859D8546E0249F800D911D11249D8746
:101AF0008C87BECF6A3069F41D861C86FC0138963F
:101B0000E4912D898E859F85E29F800D911D112482
:101B1000ADCF6D3009F4ACCFFC013496349163172E
:101B200008F4A6CF3296E491E61708F4A1CFFC01A1
:101B3000329685909490462F431B342F47E0349F74
:101B4000800C911C1124F401329634913196E49169
:101B50003323A9F1EE2399F1CC88F4013596E49171
:101B6000AD884F89442301F10E2E000CFF0BE30FCB
:101B7000F11DCE9EA001CF9E500D11246C857D8558
:101B8000460F571F68857985641775076CF44E8575
:101B90005F851D861C86FC013896E491AE9E400D43
:101BA000511D11245F874E87EA88FB8808891989AF
:101BB0004E855F856C857D85CE010E94F30AF40118
:101BC0003496E4912C898C859D85E29F800D911D32
:101BD00011248DCF6F927F928F929F92AF92BF927E
:101BE000CF92DF92EF92FF920F931F93CF93DF93E9
:101BF000EC016B015A0139014801E881F981028445
:101C0000F385E02D0995E881F9810288F389E02DBB
:101C100087019301A501B601CE010995A501480DE3
:101C2000591D41505109E881F9810288F389E02D5D
:101C30009301B601CE010995E881F9810088F18907
:101C4000E02D9401A501B601CE010995C60CD71C63
:101C5000B60161507109E881F9810088F189E02DB0
:101C60009401A501CE010995E881F9810688F789DB
:101C7000E02DCE01DF91CF911F910F91FF90EF905A
:101C8000DF90CF90BF90AF909F908F907F906F909C
:101C900009946F927F928F929F92AF92BF92CF9250
:101CA000DF92EF92FF920F931F93CF93DF935C012C
:101CB000EB016A01490138018701DC01ED91FC91DA
:101CC0006217730719F5641675062CF0962D872D8B
:101CD0003A01C92ED82E9601261937092F5F3F4F9A
:101CE000048CF58DE02DA301BE01C5010995DF919E
:101CF000CF911F910F91FF90EF90DF90CF90BF9009
:101D0000AF909F908F907F906F90089546155705E4
:101D100091F42617370724F0892D4B01C22FD82FB5
:101D20009E01281939092F5F3F4F068CF78DE02D52
:101D3000A601B401DACF0284F385E02D0995D5011F
:101D4000ED91FC910488F589E02D83019401A601B1
:101D5000BE01C5010995D501ED91FC910688F78971
:101D6000E02DC501DF91CF911F910F91FF90EF9072
:101D7000DF90CF90BF90AF909F908F907F906F90AB
:101D80000994EF92FF920F931F93DC011A960D9125
:101D90001C911B9718962D913C911997ED91FC91F0
:101DA00000A0F1A1E02D7B0150E040E070E060E098
:101DB00009951F910F91FF90EF9008954F925F92B8
:101DC0006F927F928F929F92AF92BF92CF92DF924B
:101DD000EF92FF920F931F93CF93DF936C012B0130
:101DE0005A0139014801DC01ED91FC910284F3852F
:101DF000E02D0995E201640C751CD601ED91FC9172
:101E0000C615D7055CF40088F189E02D870194019F
:101E1000A501BE01C60109952196EFCF0688F78975
:101E2000E02DC601DF91CF911F910F91FF90EF90B0
:101E3000DF90CF90BF90AF909F908F907F906F90EA
:101E40005F904F9009948F929F92AF92BF92CF92E2
:101E5000DF92EF92FF920F931F93CF93DF93EC01EA
:101E60005B014A016901E881F9810284F385E02D73
:101E7000099595012C0D3D1D21503109E881F9810D
:101E80000488F589E02D78018401A401B501CE0113
:101E90000995E881F9810688F789E02DCE01DF9167
:101EA000CF911F910F91FF90EF90DF90CF90BF9057
:101EB000AF909F908F9009948F929F92AF92BF9214
:101EC000CF92DF92EF92FF920F931F93CF93DF9306
:101ED000EC015B014A0169017801E881F981028422
:101EE000F385E02D0995C80CD91C86010150110914
:101EF000E881F9810488F589E02D9501A401B501F7
:101F0000CE010995E881F9810688F789E02DCE0197
:101F1000DF91CF911F910F91FF90EF90DF90CF90C5
:101F2000BF90AF909F908F900994EF92FF920F9384
:101F30001F93DC01ED91FC9100A0F1A1E02D09952A
:101F40001F910F91FF90EF9008950F931F93DC0165
:101F5000ED91FC91068CF78DE02D09951F910F9165
:101F600008952F923F924F925F926F927F928F923D
:101F70009F92AF92BF92CF92DF92EF92FF920F9318
:101F80001F93CF93DF93CDB7DEB7A4970FB6F89426
:101F9000DEBF0FBECDBF7CA36BA32A016901380150
:101FA0005701261737070CF07AC1E616F7060CF42E
:101FB0008DC13BA12CA1DCA2CBA2C32ED22E382FE7
:101FC000292FC201432E522E2BA13CA12A153B05DD
:101FD000B9F5481659062CF4382F292FC201432E83
:101FE000522E681679062CF0461457040CF423017F
:101FF0003C019201261937092F5F3F4F10E000E0A6
:102000004BA15CA1B3018FE494E00E94A50FA496BC
:102010000FB6F894DEBF0FBECDBFDF91CF911F91F9
:102020000F91FF90EF90DF90CF90BF90AF909F9077
:102030008F907F906F905F904F903F902F9008957A
:10204000362D272D3C01832F922F3A2D2B2DABA01F
:10205000BCA03BA32CA3920126193709A6014A195B
:102060005B09BC01661977097A8B698BABA1BCA1AE
:10207000AA19BB09BE83AD834C01841895086BA1D6
:102080007CA16C197D097E876D878BA19CA1EBA03B
:10209000FCA08C159D0521F0760191E0E91AF1086C
:1020A000150119861A861B861C8619821A821B82C4
:1020B0001C8269897A89072E000C880B990B6B8B1F
:1020C0007C8B8D8B9E8BCA01550FAA0BBB0B8F8B04
:1020D000988FA98FBA8F4D815E81052E000C660BFB
:1020E000770B4B8F5C8F6D8F7E8FB901330F880B11
:1020F000990B6F8F78A389A39AA3E214F3040CF4CD
:102100005CC069817A818B819C812F89388D498D52
:102110005A8D0E947C338301020F131F69857A85D3
:102120008B859C852B8D3C8D4D8D5E8D0E947C33E7
:10213000B301620F731F89819A81AB81BC812F8D9E
:1021400038A149A15AA1820F931FA41FB51F8983EB
:102150009A83AB83BC8389859A85AB85BC852B89A3
:102160003C894D895E89820F931FA41FB51F898703
:102170009A87AB87BC87601771072CF0962F872F43
:10218000B801092F182F9801261B370B2F5F3F4FDF
:1021900010E000E0A1018FE494E00E94A50F3FEF62
:1021A000231A330AAACF342D252D2C01832F922FE9
:1021B0003BA12CA1DCA2CBA295C0A401092C000C50
:1021C000660B770B49835A836B837C8391012C19AF
:1021D0003D09D4010E94CF346B017C0191012A1981
:1021E0003B09A989BA890E94CF344B015C016D85F6
:1021F0007E85072E000C880B990B6D877E878F8755
:10220000988B8D819E81092E000CAA0BBB0B8D83B0
:102210009E83AF83B887ABA1BCA1A215B3050CF414
:10222000F6CEC701B6012D853E854F8558890E949F
:102230007C338201020F131FC501B4012D813E8141
:102240004F8158850E947C33B301620F731F29812F
:102250003A814B815C81C20ED31EE41EF51E8B8930
:102260009C89AD89BE89880E991EAA1EBB1E601767
:1022700071072CF0962F872FB801092F182F98017E
:10228000261B370B2F5F3F4F10E000E0A1018FE4CA
:1022900094E00E94A50F9FEF291A390ABCCFE216DD
:1022A000F3060CF091CEABA1BCA1EA16FB060CF430
:1022B0007ACF272D3A012C01802F922F3C2D2D2DE6
:1022C0006D01FCA2EBA2A32EB22E73CEE216F30692
:1022D0000CF4C1CE362D272D3201432E522E3A2D2D
:1022E0002B2D5601C32ED22EB6CE0F931F93DC0199
:1022F000ED91FC91048CF58DE02D09951F910F91C6
:1023000008952F923F924F925F926F927F928F9299
:102310009F92AF92BF92CF92DF92EF92FF920F9374
:102320001F93CF93DF93CDB7DEB72C970FB6F894FA
:10233000DEBF0FBECDBF3C017C836B835C874B87C8
:102340001801270181E090E05C01A41AB50ACA01D6
:10235000919581959109AC01440F551F5A8349838A
:10236000C80101969E838D83F12CE12C88248394EF
:10237000912C922F91709F8322702887AB014F5F21
:102380005F4F5A8749878B859C85E816F9060CF0C4
:102390007AC0CB84DC84B7FC0CC06C0191E0C91A14
:1023A000D10849815A814E5F5F4F5A834983A40EF9
:1023B000B51E5FEFE51AF50A82E0880E911CA80CA5
:1023C000B91CCE14DF0464F19F81992399F0960122
:1023D000220F331F4D815E81240F351F82014B81F7
:1023E0005C814C195D09B701660D771D8FE494E09F
:1023F0000E9475115885552399F09601220F331FBD
:102400008D819E81280F391F82014B815C814C197F
:102410005D09B3016E197F098FE494E00E94751184
:102420004B855C854C155D0559F15F81552391F015
:10243000940122503109220D331D820149855A85AC
:102440004E195F096B857C85660D771D8FE494E0DE
:102450000E9475118885882399F0940122503109D2
:10246000220D331DB3014B855C85641B750B820106
:1024700049855A854E195F098FE494E00E947511D1
:10248000DC86CB8680CF2C960FB6F894DEBF0FBECD
:10249000CDBFDF91CF911F910F91FF90EF90DF9013
:1024A000CF90BF90AF909F908F907F906F905F90F4
:1024B0004F903F902F9008952F923F924F925F92AE
:1024C0006F927F928F929F92AF92BF92CF92DF9244
:1024D000EF92FF920F931F93CF93DF9300D000D022
:1024E000CDB7DEB71C015B012A01690147013595B3
:1024F00027953C832B830217130714F41C830B834B
:102500006B807C80660C771C8B819C81820D931D77
:102510009A83898392012619370974018601A501DE
:10252000BC018FE494E00E94950FC618D70891E093
:10253000C91AD1082B813C81A20EB31E420C531C38
:10254000C201821B930B860121E04B815C81B501A6
:1025500001970E94811122E04B815C81B501898144
:102560009A810E9481110F900F900F900F90DF9130
:10257000CF911F910F91FF90EF90DF90CF90BF9080
:10258000AF909F908F907F906F905F904F903F9013
:102590002F900895AF92BF92CF92DF92EF92FF9269
:1025A0000F931F93CF93DF936C015B01EA017901D5
:1025B0009A01220F331F2F5F3F4FAB014C1B5D0B66
:1025C0008701B6018FE494E00E94751110E000E0ED
:1025D00023E0AE01B501C6010E948111DF91CF91C8
:1025E0001F910F91FF90EF90DF90CF90BF90AF9031
:1025F0000895DC01ED91FC910084F185E02D0994B2
:102600003F924F925F926F927F928F929F92AF9282
:10261000BF92CF92DF92EF92FF920F931F93CF93CF
:10262000DF935C017B014A016901390187E0680E93
:10263000711C93E0759467949A95E1F72B01400E15
:10264000511E10E000E0312CD0E0C0E0CE018770D8
:102650009927330C892B59F4FE0183E0F595E79512
:102660008A95E1F7E00FF11FE80DF91D349037FE70
:102670000AC021E030E0A701B5016C0F7D1F8FE497
:1026800094E00E94F9122196CC16DD06F9F68FEF40
:10269000E81AF80A060D171DE414F504A9F6DF91EF
:1026A000CF911F910F91FF90EF90DF90CF90BF904F
:1026B000AF909F908F907F906F905F904F903F90E2
:1026C00008952F923F924F925F926F927F928F92D6
:1026D0009F92AF92BF92CF92DF92EF92FF920F93B1
:1026E0001F93CF93DF9300D000D000D0CDB7DEB7DB
:1026F0003C016A013E832D83FC82EB825801A41ABF
:10270000B50AB7FE03C0B194A194B1088D809E8034
:10271000861A970A97FE03C09194819491088A14AF
:102720009B045CF0902F812F0D811E819D838E83F1
:102730009C2D8D2D6B01692F782F0C151D055CF0DC
:102740009D818E817E836D83692F782F902F812FBD
:102750008601C92ED82E1601201A310A2B012D818F
:102760003E81421A530A57FE03C0519441945108C6
:10277000710137FE03C03FEFE31AF30AF594E794C3
:102780008D819E81861797075CF5A1E0B0E0BA8342
:10279000A983C016D1064CF1D301ED91FC910484BC
:1027A000F585E02D2B813C81A8016D817E818A1405
:1027B0009B041CF04D815E81B801C3010995E418AA
:1027C000F508F7FE0AC02D813E8189819A81280F84
:1027D000391F3E832D83E20CF31C0F5F1F4FD9CFAF
:1027E0002FEF3FEF3A832983D4CF26960FB6F89484
:1027F000DEBF0FBECDBFDF91CF911F910F91FF9034
:10280000EF90DF90CF90BF90AF909F908F907F9090
:102810006F905F904F903F902F9008950895209172
:10282000F102260F3327331F21323105ECF42091BA
:102830001503FC0190E080E0243069F082E0089507
:10284000A091F1022191AC014F525D4FA40FB52F21
:10285000B11D2C930196861798F38091F102680FB1
:102860006093F10280E0089581E0089510921503CD
:1028700081E0809317031092160361E082E10E94C9
:102880003B0661E083E10E943B06E9EBF0E08081DA
:102890008E7F808380818D7F808388E48093B800E1
:1028A00085E48093BC000895CF93DF9391E09093EB
:1028B000D0028823B9F0C091B800D091BA008091BD
:1028C000BC008A7B8093BC0060E082E10E943B06F2
:1028D00060E083E10E943B060E943614D093BA0068
:1028E000C093B800DF91CF910895E09145038091A6
:1028F0004403E81730F4F0E0E555FD4F808190E0A7
:1029000008958FEF9FEF08959091450380914403C0
:102910002FEF3FEF981748F4E92FF0E0E555FD4F12
:10292000208130E09F5F90934503C9010895809115
:10293000440390914503891B990B0895CF92DF9230
:10294000EF92FF920F931F93CF93DF937C01CB0104
:102950008A0120915203222389F0EB016B01C40EFE
:10296000D51ECC15DD0569F06991D701ED91FC917B
:102970000190F081E02DC7010995F3CF642F0E94EB
:102980000F14C801DF91CF911F910F91FF90EF902D
:10299000DF90CF900895CF93DF931F92CDB7DEB72E
:1029A0006983209152032223F9F020914F032032B2
:1029B00058F021E030E0FC013383228390E080E096
:1029C0000F90DF91CF91089580915003E82FF0E0B0
:1029D000E557FD4F998190838F5F809350038093DB
:1029E0004F0381E090E0ECCF61E0CE0101960E94C0
:1029F0000F14F7CFCF92DF92EF92FF920F931F93B6
:102A0000CF93DF93D0914F0381E0D13208F09CC087
:102A1000C09151030E9415076B017C018091150341
:102A200081116CC082E08093150381E080931703CD
:102A30008FEF8093140310923903D0933803ABE8DF
:102A4000B2E0E8E1F3E080E0D8138DC010923A03E1
:102A500080913A03CC0FC82BC0933A0380911603A0
:102A6000813009F084C0109216030E9415076B0193
:102A70007C0180913A038093BB008091CC029091BD
:102A8000CD02A091CE02B091CF02892B8A2B8B2B45
:102A9000A1F00E9415070091CC021091CD02209167
:102AA000CE023091CF026C197D098E099F0906175D
:102AB00017072807390708F442C08091BC0083FD3E
:102AC000D8CF85EC8093BC000E9415076B017C0178
:102AD00080911503823009F44CC0809114038F3F1C
:102AE00009F469C080911403803209F466C08091B2
:102AF0001403803309F463C084E026C08091CC02C3
:102B00009091CD02A091CE02B091CF02892B8A2B59
:102B10008B2B09F483CF0E9415070091CC021091F2
:102B2000CD022091CE023091CF026C197D098E0921
:102B30009F09061717072807390708F06FCF8091FC
:102B4000CB020E94541485E01092500310924F0360
:102B500010925203DF91CF911F910F91FF90EF9050
:102B6000DF90CF9008959D9191938F5F6DCF85EE0B
:102B7000A9CF8091CC029091CD02A091CE02B091CC
:102B8000CF02892B8A2B8B2B09F4A2CF0E94150729
:102B90000091CC021091CD022091CE023091CF0253
:102BA0006C197D098E099F09061717072807390731
:102BB00008F08ECFC4CF80E0C7CF82E0C5CF83E0DE
:102BC000C3CFEF92FF920F931F93CF93DF937C01BC
:102BD000C62F80916C0490916D04009709F459C040
:102BE0002091700431E030935203209351031092EE
:102BF000500310924F03DC01ED91FC910190F081A4
:102C0000E02D60E009958701EE24E394F12CD1E0FA
:102C1000C15080916C0490916D04CF3F91F1B0E26E
:102C2000EB16F104D8F00E94FA1480916C04909194
:102C30006D0420917004D09352032093510310929D
:102C4000500310924F03DC01ED91FC910190F08153
:102C5000E02D60E00995EE24E394F12C80916C0462
:102C600090916D04F8016491DC01ED91FC9101906B
:102C7000F081E02D0995BFEFEB1AFB0A0F5F1F4FA4
:102C8000C7CFDF91CF911F910F91FF90EF900C94E0
:102C9000FA14E0917C04F0917D049081809182048B
:102CA0008095892380838701C15008F438C0F801DA
:102CB000849120916A0430916B04232B29F00E94A7
:102CC000D30A0F5F1F4FF0CF28E030E040E8E091DB
:102CD0007804F091790490918004582F5423D9F00E
:102CE0005081952B9083E0917A04F0917B04908140
:102CF00050918104952B9083E0917A04F0917B04AC
:102D00005081909181049095952390834695215010
:102D10003109E9F6D6CF508190959523E3CFDF9125
:102D2000CF911F910F91FF90EF9008951F93CF9334
:102D3000DF93EC018D8D9E8D009721F1162F29A137
:102D400031E03093520320935103109250031092BC
:102D50004F03DC01ED91FC910190F081E02D60E0EA
:102D600009958D8D9E8DDC01ED91FC910190F08196
:102D7000E02D612F09958D8D9E8DDF91CF911F9153
:102D80000C94FA14ADA5BEA59C918BA980958923BE
:102D90008C938B8D9C8D892B31F0862FDF91CF9179
:102DA0001F910C94D30A28E030E080E8A9A5BAA5C9
:102DB00099A9462F4823C1F04C91942B9C93ABA525
:102DC000BCA59C914AA9942B9C93ABA5BCA54C9106
:102DD0009AA9909594239C9386952150310931F7B7
:102DE000DF91CF911F9108954C9190959423E6CF58
:102DF000DF92EF92FF920F931F93CF93DF93809117
:102E00006C0490916D04892B09F4A5C02091840471
:102E100030918504409186045091870460E074E20B
:102E200084EF90E00E94E5332051310941095109B6
:102E300056954795379527952093B80064E084EE22
:102E40009AE00E94E11580915304909154048034DB
:102E5000910509F097C060E28FE494E00E94961615
:102E600060915304615E8FE494E00E949616209175
:102E7000550430915604C901079697FD079633E033
:102E8000959587953A95E1F7209153043091540434
:102E9000829F8001839F100D929F100D1124C0917D
:102EA0006E04D0916F0480916C0490916D040C0FAE
:102EB0001D1F009709F498C02091700431E03093F1
:102EC0005203209351031092500310924F03DC01E0
:102ED000ED91FC910190F081E02D60E40995EE24E4
:102EE000E394F12CDD24D39480916C0490916D04D3
:102EF0000C171D0709F44FC0B0E2EB16F104D8F02F
:102F00000E94FA1480916C0490916D0420917004D9
:102F1000D0925203209351031092500310924F030A
:102F2000DC01ED91FC910190F081E02D60E40995C8
:102F3000EE24E394F12C80916C0490916D046991DE
:102F4000DC01ED91FC910190F081E02D0995BFEF3E
:102F5000EB1AFB0AC9CF80916A0490916B04892B0C
:102F600031F080918D0490918E040E94DA0AE091F4
:102F70007E04F0917F049081809183048095892361
:102F800080835CCF60E08FE494E00E9496166091AD
:102F90005304615068CF0E94FA1480916C049091A0
:102FA0006D04892B09F461C0209188043091890453
:102FB00040918A0450918B0460E074E284EF90E0C9
:102FC0000E94E53320513109410951095695479531
:102FD000379527952093B800DF91CF911F910F91DE
:102FE000FF90EF90DF900895E0917C04F0917D04D4
:102FF000808190918204892B80830C171D0769F2D0
:10300000899120916A0430916B04232B19F00E945E
:10301000D30AF3CF28E030E040E8E0917804F09163
:10302000790490918004582F5423D9F05081952B26
:103030009083E0917A04F0917B0490815091810417
:10304000952B9083E0917A04F0917B0450819091CC
:103050008104909595239083469521503109E9F696
:10306000CCCF508190959523E3CFE0917E04F091F1
:103070007F04808190918304892B8083ADCF1F933F
:10308000CF93DF93EC01162F8D8D9E8D892BB1F19F
:103090002DA93EA94FA958AD60E074E284EF90E0FD
:1030A0000E94E53320513109410951095695479550
:1030B000379527952093B80066EA111167EACE018B
:1030C0000E9496168D8D9E8D892B41F129AD3AADCA
:1030D0004BAD5CAD60E074E284EF90E00E94E533BC
:1030E0002051310941095109569547953795279542
:1030F0002093B800DF91CF911F9108958B8D9C8D07
:10310000892B21F08EAD9FAD0E94DA0AEFA5F8A9B8
:1031100090818CA9809589238083CECFEFA5F8A9D3
:1031200080819CA9892B8083E5CF20913D0330913C
:103130003E032817390771F490913B0380913C03BB
:10314000981741F0E0913B03F0E0E65BFD4F808192
:1031500090E008958FEF9FEF0895EF92FF920F9305
:103160001F93CF93DF93DC015C96ED90FC905D970D
:10317000E114F10479F481E090E013969C938E932E
:10318000129790E080E0DF91CF911F910F91FF9017
:10319000EF9008955196ED91FC91529750968C9135
:1031A0005097982F90950FB75E962C915E97122F9F
:1031B000127021FD6095F8942081112319F1282BBC
:1031C0002083E7012197F1F728E0462F50E0308176
:1031D00060FF1AC0382B3083E7012197F1F7BA015D
:1031E00075956795215089F7112381F08081892396
:1031F00080830FBF5C968D919C910197F1F781E0E0
:1032000090E0C1CF2923DCCF3923E5CF9081892BF2
:10321000EFCF20913D0330913E032817390761F429
:1032200080913C0320913B0390E0805C9F4F821B88
:1032300091098F739927089590E080E00895209177
:103240003D0330913E0328173907B9F490913B03B1
:1032500080913C03981789F0E0913B03F0E0E65B36
:10326000FD4F808120913B0330E02F5F3F4F2F7354
:10327000332720933B0390E008958FEF9FEF08954D
:103280002FB7F89480914B0390914C03A0914D037C
:10329000B0914E032FBF80932C0490932D04A093E4
:1032A0002E04B0932F0484E294E00E941F1997FF2C
:1032B00026C02FB7F89480914B0390914C03A091B6
:1032C0004D03B0914E032FBF40912C0450912D041B
:1032D00060912E0470912F04841B950BA60BB70BE5
:1032E000409128045091290460912A0470912B0484
:1032F00084179507A607B707B0F28FEF9FEF0895E1
:1033000090E080E0089570E060E085E00E94B806FB
:1033100070E060E083E00E94B80670E060E086E064
:103320000E94B80670E060E089E00C94B806209135
:10333000550430915604C901079697FD079623E07E
:10334000959587952A95E1F720915304309154047F
:10335000829FA001839F500D929F500D112470E019
:1033600060E080916E0490916F040C94D436CF93FA
:10337000DF93EC0188819981009711F00E948035DC
:10338000198218821D821C821B821A82DF91CF91C2
:103390000895FC0180819181009711F00C94803593
:1033A0000895FC0124813581FB0144815581241756
:1033B0003507E1F4FC0180819181FB01608171811D
:1033C0000097D1F061157105A1F4232BC1F0FC0128
:1033D000808190E008C0232B91F0FB01808190E078
:1033E00091958195910921E0892B09F020E0822FA8
:1033F00008950E94E636F7CF6115710561F721E067
:10340000F6CF0E94C636FB0101900020E9F7319704
:10341000AF01461B570BDC01ED91FC910280F3815B
:10342000E02D09948F929F92AF92BF920F931F93BA
:10343000CF93DF93CDB7DEB7A1970FB6F894DEBF79
:103440000FBECDBF19A2423008F44AE08E010F5DD5
:103450001F4F842E912CB12CA12CA50194010E9408
:10346000E533E62FB901CA01EA3004F5E05DD80181
:10347000EE938D01232B242B252B79F790E080E010
:10348000109729F0BD0184E294E00E94031AA196EE
:103490000FB6F894DEBF0FBECDBFDF91CF911F9165
:1034A0000F91BF90AF909F908F900895E95CDFCF10
:1034B0000F931F93CF93DF93EC01FB014481558160
:1034C00060817181E881F9810280F381E02D0995A5
:1034D0008C0168E671E0CE010E94031A800F911FF3
:1034E000DF91CF911F910F9108956BE671E084E217
:1034F00094E00E94031A68E671E084E294E00C9480
:10350000031AFC0180819181009711F00C94003224
:1035100060E070E0CB0108950F931F93CF93DF938A
:10352000EC0188819981009759F02A813B81261707
:10353000370730F081E0DF91CF911F910F9108950F
:103540008B016F5F7F4F0E940936009759F0998376
:1035500088831B830A832C813D81232B59F7FC012F
:103560001082E8CF80E0E7CFEF92FF920F931F9396
:10357000CF93DF93EC017B018A01BA010E948C1A80
:1035800081110BC0CE010E94B719CE01DF91CF91FE
:103590001F910F91FF90EF9008951D830C83B70149
:1035A000888199810E94EF36F0CFFC011182108250
:1035B0001382128215821482F4E08B319F0769F026
:1035C00060911B0470911C046115710531F04091EC
:1035D0001F04509120040C94B41A0895FB0101902B
:1035E0000020E9F73197AF01461B570B0C94B41A32
:1035F000FC01118210821382128215821482FB0157
:1036000001900020E9F73197AF01461B570B0C944E
:10361000B41AAF92BF92CF92DF92EF92FF920F93C4
:103620001F93CF93DF936C015B017A01890124170B
:10363000350720F48F2D7901042F182F6AE671E0E9
:10364000C6010E94F81AD5011496CD91DC91EC16B2
:10365000FD06E0F40C171D0708F4E801D501ED9113
:10366000FC911197EC0FFD1F108110826D917C91E0
:103670006E0D7F1DC60161157105A1F00E94EE1A45
:10368000F50180819181C80FD91F1883C601DF9190
:10369000CF911F910F91FF90EF90DF90CF90BF904F
:1036A000AF9008950E94B719EBCF6F927F928F92DF
:1036B0009F92AF92BF92CF92DF92EF92FF920F93C1
:1036C0001F93CF93DF9300D000D000D0CDB7DEB7EB
:1036D0008C015B0180901F04909020048114910460
:1036E00029F1C0901B04D0901C0468E270E0C60170
:1036F0000E94DB367C01EC18FD08892B19F4EE24BE
:10370000EA94FE2CF601E80DF91D70801082C0903D
:103710001B04D0901C0469E270E0C6010E94F636DA
:10372000C80CD91CF60170820097D9F46AE671E0E2
:10373000C8010E94F81AC80126960FB6F894DEBF99
:103740000FBECDBFDF91CF911F910F91FF90EF90F2
:10375000DF90CF90BF90AF909F908F907F906F90B1
:10376000089520911B0430911C04AC01421B530BA3
:103770009A015FEFE516F506C9F22F3F3207B1F265
:10378000E216F3069CF6A7014F5F5F4F6BE174E012
:10379000CE0101960E94091B6D807E8089809A80EF
:1037A000CC24C394D12CF12CE12CE614F70490F531
:1037B0006CE270E0C4018E0D9F1D0E94DB369C01FF
:1037C00028193909892B11F42FEF3FEFAC14BD04F0
:1037D00081F42F3F320709F49301A701BE016F5F07
:1037E0007F4FC8010E94091BCE0101960E94C91992
:1037F000A2CF2F3F320741F079014FEFE41AF40ACC
:103800005FEFC51AD50AD1CF6AE671E0C8010E9400
:10381000F81AEACFAC14BD04B9F72FEF3FEFD9CFB8
:10382000EF92FF920F931F93CF93DF93EC018B01E5
:10383000198218821B821A821D821C82CB010E946F
:103840002E327C01BC01CE010E948C1A811109C06C
:10385000CE01DF91CF911F910F91FF90EF900C94CB
:10386000B719FD82EC82B80188819981DF91CF91EF
:103870001F910F91FF90EF900C9427322F923F925F
:103880004F925F926F927F928F929F92AF92BF9270
:10389000CF92DF92EF92FF920F931F93CF93DF931C
:1038A000CDB7DEB728970FB6F894DEBF0FBECDBFF9
:1038B0004C016B015A010E949719250180E1480EC5
:1038C000511C6FEC70E0CE0101960E94101CBE01ED
:1038D0006F5F7F4FC4010E94D119782ECE010196EF
:1038E0000E94C919772009F446C0450197E0890E66
:1038F000911CEE24E394F12C06E010E022E130E08C
:1039000048E150E0B401C60144960E945C1222E1F5
:1039100030E048E150E0B401C6018C5A9F4F0E944C
:103920005C1282E1A80EB11C30E020E045E050E0DE
:10393000B501C60182960E94CA1230E020E045E03F
:1039400050E0B501C6018E599F4F0E94CA1221E076
:1039500030E042E050E0B201C60184960E94CA12F3
:1039600021E030E042E050E0B201C6018C599F4FA7
:103970000E94CA123BC2C601809698878F831601A7
:1039800090E6290E311C69EC70E0CE0101960E9490
:10399000101CBE016F5F7F4FC4010E94D119782EA9
:1039A000CE0101960E94C919772069F121E030E02B
:1039B0004BE050E0B2018F8198850E94CA1221E04D
:1039C00030E04BE050E0B201C1010E94CA1284E035
:1039D000A80EB11CB6016C5E7F4FF12CE12C0DE0FE
:1039E00010E028E130E0A5018FE494E00E94DE0EB3
:1039F000B6016C5A7F4F28E130E0A5018FE494E0D6
:103A00000E94DE0EF3C165EC70E0CE0101960E94CB
:103A1000101CBE016F5F7F4FC4010E94D119782E28
:103A2000CE0101960E94C919772009F44AC03501D8
:103A300097E0690E711C460184E1880E911CEE240A
:103A4000E394F12C06E010E022E130E048E150E0A0
:103A5000B301C4010E945C1222E130E048E150E071
:103A6000B301C6018C5A9F4F0E945C1225019DE054
:103A7000490E511C7201840193014F815885B30195
:103A8000C4010E94B10FC60184599F4F8C0193015C
:103A9000A101B3010E94B10F82E1A80EB11C30E078
:103AA00020E044E050E0B501C6014E960E94CA12E3
:103AB00030E020E044E050E0B501C6018E599F4F50
:103AC00057CF6FEB70E0CE0101960E94101CBE0133
:103AD0006F5F7F4FC4010E94D119782ECE010196ED
:103AE0000E94C919772009F447C0450197E0890E63
:103AF000911CEE24E394F12C06E010E022E130E08A
:103B000048E150E0B401C60144960E945C123601BF
:103B100084E5680E711C22E130E048E150E0B40118
:103B2000C3010E945C1225019DE0490E511CA601B3
:103B3000445D5F4F72018A019401B4018F819885C1
:103B40000E94B10F83019401A101B401C3010E943D
:103B5000B10F81E1A80EB11C30E020E045E050E05B
:103B6000B5018F8198850E94CA1230E020E045E0BF
:103B700050E0B501C101FCCE65EB70E0CE010196CD
:103B80000E94101CBE016F5F7F4FC4010E94D119BB
:103B9000782ECE0101960E94C9197720E9F121E023
:103BA00030E04CE050E0B2018F8198850E94CA124B
:103BB00021E030E04CE050E0B201C1010E94CA12A5
:103BC000450191E1890E911C30E020E046E050E093
:103BD000B401C60181960E94CA1230E020E046E09E
:103BE00050E0B401C6018F599F4F0E94CA128FE066
:103BF000A80EB11C21E030E042E050E0B501C60162
:103C000083960E94CA1221E030E042E050E0B50104
:103C1000C6018D599F4FACCE61EB70E0CE0101968D
:103C20000E94101CBE016F5F7F4FC4010E94D1191A
:103C3000782ECE0101960E94C919772009F462C03E
:103C4000350197E0690E711C460184E1880E911CD4
:103C5000EE24E394F12C06E010E022E130E048E1AC
:103C600050E0B301C4010E945C1222E130E048E15F
:103C700050E0B301C6018C5A9F4F0E945C1225018F
:103C80009DE0490E511C7201840193014F815885BA
:103C9000B301C4010E94B10FC60184599F4F8C012A
:103CA0009301A101B3010E94B10F350182E1680EB9
:103CB000711C46019EE1890E911C30E020E044E039
:103CC00050E0B301C4010E94CA1282E6C80ED11CA2
:103CD00030E020E044E050E0B301C6010E94CA1287
:103CE0009CE1A90EB11C21E030E043E050E0B501B9
:103CF000C4010E94CA1221E030E043E050E0B50167
:103D0000C60136CE6CEA70E0CE0101960E94101C0E
:103D1000BE016F5F7F4FC4010E94D119782ECE0182
:103D200001960E94C919772009F47BC0450187E0FC
:103D3000880E911CEE24E394F12C06E010E022E1C1
:103D400030E048E150E0B401C60144960E945C12A4
:103D500022E130E048E150E0B401C6018C5A9F4FA7
:103D60000E945C1230E020E043E050E0B201C60166
:103D70004E960E94CA1230E020E043E050E0B201CB
:103D8000C60182960E94CA12450196E1890E911CD5
:103D900081E1A80EB11CA6014B5D5F4F74010F813C
:103DA00018859501B501C6014B960E94B10F30E010
:103DB00020E043E050E0B201C601825A9F4F0E94CA
:103DC000CA1230E020E043E050E0B201C6018E5953
:103DD0009F4F0E94CA12A6014B595F4F8101950166
:103DE000B501C601855A9F4F0E94B10F0E94F81677
:103DF00028960FB6F894DEBF0FBECDBFDF91CF91EE
:103E00001F910F91FF90EF90DF90CF90BF90AF90F8
:103E10009F908F907F906F905F904F903F902F90EA
:103E2000089565EA70E0CE0101960E94101CBE0163
:103E30006F5F7F4FC4010E94D119782ECE01019689
:103E40000E94C919772009F449C0450197E0890EFD
:103E5000911CEE24E394F12C06E010E022E130E026
:103E600048E150E0B401C60144960E945C1222E190
:103E700030E048E150E0B401C6018C5A9F4F0E94E7
:103E80005C12450186E0880E911CB6016D5E7F4F85
:103E9000F12CE12C0BE010E02AE130E0A4018FE4EA
:103EA00094E00E94DE0EB6016D5A7F4F2AE130E0A9
:103EB000A4018FE494E00E94DE0E93E1A90EB11CF0
:103EC00030E020E044E050E0B5018F8198850E9409
:103ED000CA1230E020E044E050E04BCE6CE970E0E4
:103EE000CE0101960E94101CBE016F5F7F4FC4017E
:103EF0000E94D119782ECE0101960E94C91977200F
:103F000009F44AC0B501695F7F4FEE24E394F12CB8
:103F100006E010E022E130E048E150E0C6014496BE
:103F20000E945C12B5016E5E7F4F30E020E045E0FC
:103F300050E0C60182960E94CA1221E030E042E0C1
:103F400050E0B201C60184960E94CA12B501635FB7
:103F50007F4F03E010E028E030E048E150E0C60188
:103F60008C5A9F4F0E945C1288E6C80ED11CA50196
:103F7000475F5F4F21E030E0B6018FE494E00E949C
:103F8000230AA501465F5F4F21E030E0B6018FE4D0
:103F900094E00E94230A2ACF64E970E0CE010196E2
:103FA0000E94101CBE016F5F7F4FC4010E94D11997
:103FB000782ECE0101960E94C919772009F451C0CC
:103FC000450197E0890E911CEE24E394F12C06E064
:103FD00010E022E130E048E150E0B401C60144962F
:103FE0000E945C1222E130E048E150E0B401C601D9
:103FF0008C5A9F4F0E945C1245018BE0880E911CE9
:10400000B601615E7F4FF12CE12C0AE010E023E065
:1040100030E0A4018FE494E00E94DE0E9FE0A90E40
:10402000B11CB601655E7F4F03E010E02AE030E08E
:10403000A5018FE494E00E94DE0EB601615A7F4F25
:104040000AE010E023E030E0A4018FE494E00E9455
:10405000DE0EB601655A7F4F03E010E02AE030E043
:10406000CCCC6EE870E0CE0101960E94101CBE011F
:104070006F5F7F4FC4010E94D119782ECE01019647
:104080000E94C919772009F452C0450187E0880EC3
:10409000911CEE24E394F12C06E010E022E130E0E4
:1040A00048E150E0B401C60144960E945C1222E14E
:1040B00030E048E150E0B401C6018C5A9F4F0E94A5
:1040C0005C12450195E1890E911C260185E2480E9E
:1040D000511C9BE0A90EB11C36018BE1680E711CCE
:1040E000F12CE12C84019201A501B3018FE494E04D
:1040F0000E94490E9301A501B2018FE494E00E9451
:10410000490E360195E6690E711C8BE5C80ED11C6F
:104110009301A501B6018FE494E00E94490E960137
:10412000A501B3018FE494E00E94490E5FCE68E8D8
:1041300070E0CE0101960E94101CBE016F5F7F4FA0
:10414000C4010E94D119782ECE0101960E94C9198E
:10415000772009F44BC0450197E0890E911CEE24AD
:10416000E394F12C06E010E022E130E048E150E079
:10417000B401C60144960E945C1222E130E048E19D
:1041800050E0B401C6018C5A9F4F0E945C12450159
:1041900086E0880E911CB6016D5E7F4FF12CE12CFC
:1041A0000DE010E02AE130E0A4018FE494E00E94E9
:1041B000DE0EB6016D5A7F4F2AE130E0A4018FE494
:1041C00094E00E94DE0E91E1A90EB11CB601655E7D
:1041D0007F4F03E010E02AE030E0A5018FE494E097
:1041E0000E94DE0EB601655A7F4F38CF63E870E05B
:1041F000CE0101960E94101CBE016F5F7F4FC4016B
:104200000E94D119782ECE0101960E94C9197720FB
:1042100009F453C0450187E0880E911CEE24E39415
:10422000F12C06E010E022E130E048E150E0B4017A
:10423000C60144960E945C12360194E5690E711C19
:1042400022E130E048E150E0B401C3010E945C1279
:10425000A601445D5F4F72018A019401B4018F8110
:1042600098850E94B10F83019401A101B401C3019B
:104270000E94B10F82E1A80EB11C30E020E044E0C2
:1042800050E0B5018F8198850E94CA1230E020E08D
:1042900044E050E0B501C1010E94CA1221E030E0C3
:1042A00042E050E0B201C60182960E94CA1221E0AB
:1042B00030E042E050E0B20100CC6FE770E0CE01A8
:1042C00001960E94101CBE016F5F7F4FC4010E94C7
:1042D000D119782ECE0101960E94C919772009F4D0
:1042E00092C0450199E0890E911CEE24E394F12CD3
:1042F00005E010E02EE030E044E150E0B401C601FA
:1043000046960E945C122EE030E044E150E0B40199
:10431000C6018A5A9F4F0E945C1230E020E044E0C0
:1043200050E0B2018F8198850E94CA1230E020E0EF
:1043300044E050E0B201C1010E94CA12450189E186
:10434000880E911CB601645E7F4F21E030E0A4012D
:104350008FE494E00E94230A9AE1A90EB11CB601F1
:10436000625E7F4F21E030E0A5018FE494E00E947F
:10437000230A21E030E0A5016F8178858FE494E085
:104380000E94230AB6016E5D7F4F21E030E0A50157
:104390008FE494E00E94230AB6016C5D7F4F21E018
:1043A00030E0A4018FE494E00E94230AB601645A2D
:1043B0007F4F21E030E0A4018FE494E00E94230AC3
:1043C000B601625A7F4F21E030E0A5018FE494E00E
:1043D0000E94230A21E030E0A501B1018FE494E0BE
:1043E0000E94230AB6016E597F4F21E030E0A501FB
:1043F0008FE494E00E94230AB6016C597F4F21E0BC
:1044000030E0A401C4CD6AE770E0CE0101960E94BD
:10441000101CBE016F5F7F4FC4010E94D119782E1E
:10442000CE0101960E94C919772009F462C04501A6
:104430008AE0880E911CEE24E394F12C04E010E055
:104440002EE030E048E150E0B401C60144960E94FD
:104450005C122EE030E048E150E0B401C6018C5A15
:104460009F4F0E945C1245019DE0890E911C9101B5
:104470008F819885281B390B2C503109B601645D5A
:104480007F4F06E010E0A4018FE494E00E94DE0E6E
:104490009BE0A90EB11CF12CE12C03E010E02CE014
:1044A00030E046E150E0B501C60145960E945C123D
:1044B0002CE030E046E150E0B501C6018B5A9F4F39
:1044C0000E945C129601235E3F4FB601675E7F4FEC
:1044D000EE24E394F12C8401A4018FE494E00E9483
:1044E000490E9601235A3F4FB601675A7F4FA401E8
:1044F00019CE65E770E0CE0101960E94101CBE0146
:104500006F5F7F4FC4010E94D119782ECE010196B2
:104510000E94C919772009F453C0B501695F7F4F24
:10452000EE24E394F12C06E010E022E130E048E1D3
:1045300050E0C60144960E945C12B5016E5E7F4F4A
:1045400030E020E045E050E0C60182960E94CA12A9
:1045500021E030E042E050E0B201C60184960E94C2
:10456000CA1235018CE0680E711C460196E5890E71
:10457000911C83019101A201B4018FE494E00E9497
:10458000490E8AE6C80ED11C82019601A301B10131
:104590008FE494E00E94490E35019DE0690E711C84
:1045A00081E1A80EB11C83019101A501B4018FE442
:1045B00094E00E94490E85019601A301B101B2CD9C
:1045C00060E770E0CE0101960E94101CBE016F5F93
:1045D0007F4FC4010E94D119782ECE0101960E940E
:1045E000C919772009F460C0450198E1890E911C32
:1045F000360188E2680E711C250198E0490E511CB5
:10460000560188E1A80EB11CEE24E394F12C84013C
:104610009301A201B5018FE494E00E94490E950137
:10462000A201B3018FE494E00E94490E560199E281
:10463000A90EB11C360187E1680E711C9501A2011B
:10464000B3018FE494E00E94490E9301A201B501E9
:104650008FE494E00E94490E560198E6A90EB11C21
:10466000360188E5680E711C9501A201B3018FE443
:1046700094E00E94490E9301A201B5018FE494E0F9
:104680000E94490E560199E6A90EB11C87E5C80E95
:10469000D11C9501A201B6018FE494E00E94490E5D
:1046A0009601A201B5013ECD68E670E0CE0101960B
:1046B0000E94101CBE016F5F7F4FC4010E94D11980
:1046C000982ECE0101960E94C919992009F48ECB2B
:1046D000450197E0890E911CEE24E394F12C06E04D
:1046E00010E022E130E048E150E0B401C601449618
:1046F0000E945C1222E130E048E150E0B401C601C2
:104700008C5A9F4F0E945C1245018EE0880E911CCE
:1047100030E020E045E050E0B401C6014D960E9433
:10472000CA1230E020E045E050E0B401C6018D59E6
:104730009F4F0E94CA1245019CE0890E911C21E006
:1047400030E042E050E0B401C6014F960E94CA1228
:1047500021E030E042E050E0B401C6018B599F4FA8
:104760000E94CA12B501655E7F4F21E030E042E051
:1047700050E0C6018A96FCC885ED8093BC0080910C
:10478000CC029091CD02A091CE02B091CF020796BB
:10479000A11DB11D23E0B695A795979587952A95FC
:1047A000D1F72091BC0024FD03C010921503089599
:1047B0004091CC025091CD026091CE027091CF0217
:1047C000452B462B472B69F30097A105B10541F016
:1047D0002AE22A95F1F700C00197A109B109E1CFBA
:1047E0008091CB020C945414CF93DF93DC01149688
:1047F0002D913C911597232B69F0FB01CD91DC9114
:1048000060817181CE010E9401379C012C1B3D0B00
:10481000892B11F42FEF3FEF81E02F3F3F4F09F439
:1048200080E0DF91CF9108951F920F920FB60F9203
:1048300011242F933F938F939F93AF93BF938091B6
:104840004B0390914C03A0914D03B0914E033091D6
:10485000460323E0230F2D3758F50196A11DB11D06
:104860002093460380934B0390934C03A0934D03F6
:10487000B0934E038091470390914803A091490360
:10488000B0914A030196A11DB11D809347039093F7
:104890004803A0934903B0934A03BF91AF919F91FE
:1048A0008F913F912F910F900FBE0F901F901895F1
:1048B00026E8230F0296A11DB11DD2CF1F920F92A1
:1048C0000FB60F9211242F933F934F935F936F93E3
:1048D0007F938F939F93AF93BF93EF93FF9383E562
:1048E00093E00E94ED07FF91EF91BF91AF919F91EF
:1048F0008F917F916F915F914F913F912F910F9089
:104900000FBE0F901F9018951F920F920FB60F9227
:1049100011242F938F939F93EF93FF93E091630361
:10492000F09164038081E0916903F0916A0382FD54
:104930001BC0908180916C038F5F8F7320916D03FA
:10494000821741F0E0916C03F0E0ED5AFC4F958F37
:1049500080936C03FF91EF919F918F912F910F9016
:104960000FBE0F901F9018958081F4CF1F920F9269
:104970000FB60F9211242F933F934F935F936F9332
:104980007F938F939F93AF93BF93EF93FF93809108
:10499000B900887F803609F44AC0F0F5883209F4FE
:1049A000A7C018F5803109F49BC0B8F4882309F436
:1049B000F9C0883009F494C0FF91EF91BF91AF9195
:1049C0009F918F917F916F915F914F913F912F9127
:1049D0000F900FBE0F901F901895883109F488C072
:1049E000803251F78093140314C0803409F49DC0C1
:1049F00040F48033B9F38833F9F68093140385ECDF
:104A0000B0C0803509F485C0883509F496C0883473
:104A100099F60E94BC23D0CF883909F48CC038F5B0
:104A2000883729F050F4883611F0803729F683E072
:104A3000809315031092130357C0883809F47BC084
:104A4000803919F0803809F0B7CF80911303803294
:104A500008F071C0E091130381E08E0F809313037F
:104A60008091BB00F0E0ED50FD4F80833DC0803B66
:104A700039F0E0F4803A09F479C0883A09F09CCF23
:104A800084E0809315031092F2021092F102E091FB
:104A90004203F091430309958091F10281110FC007
:104AA00081E08093F1021092D10209C0803C09F4A8
:104AB000A6CF883C09F4A3CF883B09F07DCFE091D5
:104AC000F20281E08E0F8093F202F0E0EF52FD4F90
:104AD00080818093BB009091F2028091F10229C005
:104AE00080913A038093BB0085EC8093BC0064CF37
:104AF0009091390380913803981758F5E091390364
:104B000081E08E0F80933903F0E0E85EFC4F8081F6
:104B1000E9CFE091390381E08E0F809339038091D2
:104B2000BB00F0E0E85EFC4F8083909139038091F8
:104B300038039817C8F285E8D8CFE091390381E0AF
:104B40008E0F809339038091BB00F0E0E85EFC4F4C
:104B500080838091170381115CCF81E080931603DD
:104B600084EA8093BC001092150326CF85EC8093D5
:104B7000BC001092150380911303803230F4E09151
:104B80001303F0E0ED50FD4F10826091130370E0CD
:104B9000E0914003F091410383EF92E00995109278
:104BA00013030ACF1092140334CF1F920F920FB643
:104BB0000F9211242F933F934F935F936F937F93A3
:104BC0008F939F93AF93BF93CF93DF93EF93FF9315
:104BD00080918A02C0911404D0E087FF24C0109213
:104BE00085001092840080918A028F5F80938A02F0
:104BF00080918A02082E000C990B8C179D0724F4D3
:104C000080918A028C30C4F180918400909185005B
:104C1000049680349C4908F47AC080918400909175
:104C20008500049676C080918A02082E000C990BAC
:104C30008C179D07C4F6E0918A028E2FEE0F990B18
:104C4000FC01EE0FFF1FE80FF91FE051FC4F8081C0
:104C500086FFC9CFE0918A028E2FEE0F990BFC01DF
:104C6000EE0FFF1FE80FF91FE051FC4F808160E05D
:104C70008F730E943B06B7CF20918400309185004E
:104C8000E0918A028E2FEE0F990BFC01EE0FFF1FB1
:104C9000E80FF91FE051FC4F81819281820F931F31
:104CA0009093890080938800E0918A028E2FEE0F06
:104CB000990BFC01EE0FFF1FE80FF91FE051FC4FAD
:104CC000808186FF11C0E0918A028E2FEE0F990B32
:104CD000FC01EE0FFF1FE80FF91FE051FC4F808130
:104CE00061E08F730E943B06FF91EF91DF91CF91BE
:104CF000BF91AF919F918F917F916F915F914F91F4
:104D00003F912F910F900FBE0F901F90189580E448
:104D10009CE990938900809388008FEF80938A02AA
:104D2000E3CF1F920F920FB60F9211242F933F9350
:104D30004F935F936F937F938F939F93AF93BF93A3
:104D4000EF93FF93E0913D03F0913E03309749F0DC
:104D5000A685B7858585968D91FF14C09C91892382
:104D6000A1F4FF91EF91BF91AF919F918F917F91AE
:104D70006F915F914F913F912F910F900FBE0F90C8
:104D80001F9018959C91892361F7A389B4899C9100
:104D90008589809589238C93868997890197F1F776
:104DA000608D718DA685B785558538E020E0CB01F3
:104DB0000197F1F7822F90E095958795282F4C91D8
:104DC000452309F02068315091F7868D81FD2095AB
:104DD00080913C0390E001968F73992730913B03BB
:104DE000381799F0A0913C03B0E0A65BBD4F2C931F
:104DF00080933C03828D938D0197F1F7A389B48949
:104E00008C919589892B8C93ACCF868D8160868F10
:104E1000F1CFCF92DF92EF92FF920F931F93E82F83
:104E2000F92F05C0015011092109310961F1908163
:104E300096239417B9F305C00150110921093109CE
:104E400011F1908196239413F7CFC12CD12CE12C32
:104E5000F12C0AC08FEFC81AD80AE80AF80A0C1514
:104E60001D052E053F0579F080818623841791F377
:104E70006C2D7D2D8E2D9F2D1F910F91FF90EF900A
:104E8000DF90CF90089560E070E080E090E01F91A7
:104E90000F91FF90EF90DF90CF9008950F931F93A5
:104EA000109256031092550308EE13E020E030E014
:104EB00000935703109358032093590330935A03D8
:104EC0008AE091E0909354038093530385EC90E043
:104ED0009093600380935F0384EC90E0909362036F
:104EE0008093610380EC90E090936403809363036C
:104EF00081EC90E0909366038093650382EC90E0F0
:104F0000909368038093670386EC90E090936A0324
:104F10008093690310926C0310926D0310926E03DC
:104F200010926F03109246041092450400934704B8
:104F3000109348042093490430934A048CE191E093
:104F400090934404809343041092520410925104AD
:104F500040E850E0509354044093530480E290E0C2
:104F600090935604809355045093580440935704EB
:104F700090935A04809359041092650410925C0433
:104F800010925B0410925E0410925D0461E06093E5
:104F90006404609363048FEF9FEF909362048093A7
:104FA00061049093600480935F04609366041092A0
:104FB0006704109269041092680480E491E0909371
:104FC000500480934F0410926B0410926A0483E49F
:104FD00094E090936D0480936C0410926F0410928F
:104FE0006E049FEF909373049093740490937504F0
:104FF000909376049093770480E89AE1A6E0B0E07D
:105000008093840490938504A0938604B0938704CE
:1050100080EA96E8A1E0B0E0809388049093890448
:10502000A0938A04B0938B0480E580938D04109242
:105030008E041092270410922604009328041093E3
:10504000290420932A0430932B048EE291E090935C
:1050500025048093240410923B0410923A04109289
:105060003D0410923C0410923F0410923E041092B2
:10507000410410924004809142048E7F8D7F809382
:1050800042048695817068278BE00E943B0661E0B0
:105090008BE00E948706EBE1FBE0E491E0933404AF
:1050A000E7E0FBE0E491F0E0EE0FFF1FEE50F54F7C
:1050B00085919491909336048093350460E08AE062
:1050C0000E9487068091420481FD04C061E08AE06D
:1050D0000E943B068AE080933004EAE1FBE0E49121
:1050E000E0933104E6E0FBE0E491F0E0EE0FFF1F17
:1050F000E851F54F85919491909333048093320455
:10510000809114048C3000F591E0980F9093140472
:105110008093210490E0FC01EE0FFF1FE80FF91FC0
:10512000E051FC4F88EB9BE0928381836AE671E05B
:105130008BE194E00E94F81A66E871E085E194E062
:105140001F910F910C94F81A8FEF80932104EECFEA
:10515000CF93DF93CDB7DEB762970FB6F894DEBF7B
:105160000FBECDBF789484B5826084BD84B5816064
:1051700084BD85B5826085BD85B5816085BD809122
:105180006E00816080936E0010928100809181009A
:105190008260809381008091810081608093810092
:1051A000809180008160809380008091B100846054
:1051B0008093B1008091B00081608093B0008091B5
:1051C0007A00846080937A0080917A008260809374
:1051D0007A0080917A00816080937A0080917A00D1
:1051E000806880937A001092C10061E085E00E949F
:1051F000870661E083E00E94870661E086E00E9406
:10520000870661E089E00E94870661E08CE00E94E9
:10521000870661E084E00E94870660E087E00E94E4
:105220008706809121048C3008F051C061E08DE048
:105230000E94870680912104282F30E0F901EE0FAB
:10524000FF1FE20FF31FE051FC4F9081907C9D60A7
:10525000908310922204109223042CE0622F0E946B
:10526000C334829FB001112430E020E0AB01420F33
:10527000531FFA01EE0FFF1FE40FF51FE051FC4F23
:10528000908196FD16C02F5F3F4F2C30310571F78E
:1052900081110FC01092800082E0809381001092F3
:1052A000850010928400B19A80916F008260809393
:1052B0006F00E09121048E2F90E0FC01EE0FFF1FA4
:1052C000E80FF91FE051FC4F8081806480831092C9
:1052D0003F0410923E0410923D0410923C04109240
:1052E0003B0410923A048DE991E09093410480933D
:1052F000400490913004963108F047C02DEB30E027
:1053000030933B0420933A042BE931E030933D0481
:1053100020933C042CE231E030933F0420933E0480
:105320002091680084E0983048F031E09E3008F425
:1053300030E081E001C0880F3A95EAF7822B809334
:1053400068002DE630E0983050F02BE630E09E30DB
:1053500030F02CE630E0963110F030E020E0309371
:10536000380420933704292F30E0983008F099C092
:1053700081E001C0880F9A95EAF780933904809103
:105380004004909141040197F1F780913E0490917F
:105390003F04892B49F1E0913D03F0913E0324E065
:1053A000E432F20709F1309739F0A389B4899C916E
:1053B0008589809589238C93809142048E7F809388
:1053C000420410923C0310923B0384E294E09093D9
:1053D0003E0380933D03E0913704F09138048081CF
:1053E00090913904892B8083E0916303F0916403E9
:1053F00082E08083E0915F03F09160031082E0918E
:105400006103F09162038FEC808310926B03E09153
:105410006703F091680386E08083E0916503F09173
:105420006603808180618083E0916503F09166036B
:10543000808188608083E0916503F09166038081BC
:1054400080688083E0916503F091660380818F7DA1
:10545000808380916E0490916F04892B79F10E9472
:1054600097192091550430915604809153049091DE
:105470005404213231050CF058C0B9016052710951
:1054800077FF02C06F5F7F4F7595679583579109CE
:1054900097FD019600E210E023E730E048EF55E089
:1054A00057C09E3040F42850310981E001C0880F78
:1054B0002A95EAF762CF2E503109F7CF2091550493
:1054C00030915604C901079697FD0796B3E095956C
:1054D0008795BA95E1F72091530430915404AC01BB
:1054E000429FC001439F900D529F900D11240E9436
:1054F000E43490936F0480936E04892B09F0AFCF4E
:1055000008E91AE0F8016491662341F083E593E02D
:105510000E940F080F5F1F4F892BA1F768E671E00B
:1055200083E593E00E94031AFFC0B901605471093A
:1055300077FF02C06F5F7F4F759567958255910920
:1055400097FD019600E410E022E530E048ED57E0D9
:10555000959587950E94001382E080937104809155
:105560006C0490916D04892B09F421C18CE3809324
:10557000700410924503109244031092500310924D
:105580004F030E9436148DE697E090934303809377
:1055900042038EE697E0909341038093400380910D
:1055A000770487FD1EC061E00E94870661E080915C
:1055B00077040E943B0661E070E080E090E00E948A
:1055C0003A0760E0809177040E943B066AE070E051
:1055D00080E090E00E943A0761E0809177040E94A9
:1055E0003B0680916C0490916D04892B09F49EC157
:1055F0002091840430918504409186045091870461
:1056000060E074E284EF90E00E94E53320513109BC
:105610004109510956954795379527952093B8002C
:1056200064E084EF95E00E94E115609155046150BB
:105630008FE494E00E94961664E080EF95E00E946B
:10564000E1158091710460E1813009F064E18FE43B
:1056500094E00E94961664E08CEE95E00E94E115BD
:105660008FE880938C048091530490915404803887
:10567000910509F072C180915504909156048034CF
:10568000910509F07AC180917104813009F088C1D7
:105690008FE980938C0412E16AED8FE494E00E941C
:1056A0009616612F8FE494E00E94961661E88FE4CD
:1056B00094E00E94961660918C048FE494E00E941E
:1056C000961669ED8FE494E00E949616809171041D
:1056D00062E2813009F061EF8FE494E00E94961657
:1056E00066E086EE95E00E94E11580916C04909151
:1056F0006D04892B09F456C12091880430918904E6
:1057000040918A0450918B0460E074E284EF90E051
:105710000E94E533205131094109510956954795B9
:10572000379527952093B8000E9497190E94F81684
:105730006EE671E0CE0101960E94F81A50E040E05A
:1057400070E060E0CE0101960E943E1CCE01019601
:105750000E94C91933E2232E312C6AE671E0CE0192
:105760000D960E94F81A0E94401949895A8997FD9E
:1057700023C18A30910509F41FC189831A828A01E5
:105780000F5F1F4FB801CE010D960E948C1A88231F
:1057900051F32D853E8589899A89BE016F5F7F4FC0
:1057A000820F931F0E94EF361A8B098BDCCF61E0CA
:1057B000809175040E94870661E0809176040E94C2
:1057C000870680917504082E000C990BFC01E450AB
:1057D000F54FE491F0E0EE0FFF1FEE50F54F2591ED
:1057E000349130937D0420937C04FC01E05FF44FFE
:1057F000E491E093820480917604082E000C990BCA
:10580000FC01E450F54FE491F0E0EE0FFF1FEE5085
:10581000F54FA591B491B0937F04A0937E04FC0151
:10582000E05FF44FE491E09383048C91E82BEC93D8
:1058300080916A0490916B04892B09F434C01FB7DE
:10584000F89480913F03811127C0E6E0FBE084914A
:10585000EAE1FBE09491E82FF0E0EE0FFF1FEA533E
:10586000F54FA591B491EC91E92321F461E08AE030
:105870000E943B0661E08AE00E9487068CB5806149
:105880008CBD8CB580648CBD61E08DE00E94870684
:1058900061E08BE00E94870680913F038F5F8093D9
:1058A0003F031FBF7CCE61E0809173040E94870696
:1058B00061E0809174040E94870680917304082E31
:1058C000000C990BFC01E450F54FE491F0E0EE0F71
:1058D000FF1FEE50F54F25913491309379042093BA
:1058E0007804FC01E05FF44FE491E0938004809140
:1058F0007404082E000C990BFC01E450F54FE49160
:10590000F0E0EE0FFF1FEE50F54FA591B491B0936C
:105910007B04A0937A04FC01E05FF44FE491E093F0
:1059200081048C91E095E823EC9339CE80916A0450
:1059300090916B04892B31F080918D0490918E04AD
:105940000E94DA0AE0917E04F0917F0490818091B8
:10595000830480958923808363CE8036910589F402
:105960008091550490915604409739F480917104C8
:10597000813029F480E180938C0412E08DCE8FEA8F
:10598000FACF80349105C9F780915504909156045F
:10599000809799F780917104813011F480E179CE7C
:1059A0008FEC77CEE0917E04F0917F04808190911E
:1059B0008304892B8083B8CE4115510509F451C069
:1059C0006D857E858BE194E06115710509F428C42D
:1059D0000E94B41A60901B0470901C04611471043E
:1059E00049F000911F041091200473010115110565
:1059F00009F01AC465E771E0CE0101960E94F81A19
:105A0000E0901B04F0901C04E114F10409F448C474
:105A100000911F041091200401151105B9F08D812A
:105A20009E81080F191FB801CE0101960E948C1AA1
:105A3000882309F435C429813A818D819E81B7017B
:105A4000820F931F0E94EF361E830D83BE016F5F8E
:105A50007F4F83E593E00E94581ACE0101960E9481
:105A6000C91980911F0490912004892BB1F06BE734
:105A700071E080911B0490911C040E94E636892BF2
:105A800061F461E08CE00E943B066FE771E085E124
:105A900094E00E94EE1A0E94751A80911F04909162
:105AA0002004892BB1F062E871E080911B04909191
:105AB0001C040E94E636892B61F460E08CE00E94B1
:105AC0003B0666E871E085E194E00E94EE1A0E94D0
:105AD000751A80911F0490912004892B81F06AE847
